:0A0000000C949D000C9400000C9479
:10000A0000000C94CA000C9400000C9400000C949C
:10001A0000000C9400000C9400000C9400000C9456
:10002A0000000C9400000C9400000C9400000C9446
:10003A0000000C9400000C9400000C9400000C9436
:10004A0000000C9400000C940000FEFDFBF7EFDFAB
:10005A00433738392A2F533435362D5250313233FB
:10006A002B6E72302E3D2B701027E80364000A00B5
:10007A000100001000011000010000000000300023
:10008A002D3000302E002D004572723A20446976D8
:10009A002F30002D25640025303364002D25642E71
:1000AA002573004572723A2073717274282D2900E3
:1000BA004D656D20436C656172004D2B004D2D001E
:1000CA0080C001002D4E414E00494E4600000400FA
:1000DA0004008400020060028800030062028A00B1
:1000EA00030065028D0002006802900003006A02A4
:1000FA008D0002006D028E0002006F029000020065
:10010A0071029000020073029000020075029000D2
:10011A0002007702900002007902900002007B023E
:10012A0090000200A302CA000100A702CC0000004E
:10013A00F894EE27ECBBF1E0FBBFEBBFE5BF8DE027
:10014A00A2E0BB27ED938A95E9F780E098E0A0E664
:10015A00ED930197E9F7E8EDF0E085919591009725
:10016A0061F0A591B59105901590BF01F001059038
:10017A000D920197E1F7FB01F0CFEFE5EDBFE8E063
:10018A00EEBFC0E6D2E00C94E8000A921A92FA9204
:10019A006A937A938A939A93AA93BA93EA93FA936D
:1001AA00EFB7EA9343D1E0937D02E991EFBFF9916A
:1001BA00E991B991A9919991899179916991F99066
:1001CA001990099018952C97E0E0EABBEFE0EBBB99
:1001DA00E0E0E7BBE4E0E8BBEFE3E4BBE0E0E5BB7B
:1001EA00A0E10E9467050E94D708EBB7E062EBBF67
:1001FA00E0E0E4BFEAB7E062EABFB0D27894E09107
:10020A007D02E030E1F310917D02E0E0E0937D02AF
:10021A00123509F06624103310F01A3308F02DC095
:10022A000E94DD0809F49AD20E94E20819F4E8E86B
:10023A00F2E002C0EEE7F2E09F013A932A93A0E6C9
:10024A00B2E00E946907E03019F4D901E0E0EC93CA
:10025A003A932A93A2E6B2E00E946907E03039F4A1
:10026A00D901EDE2EC93F9013196A0E0A0833A932B
:10027A002A93A12F56D230D2D7C01E3291F50E94AE
:10028A00DD0809F46BD20E94E20819F4E8E8F2E00A
:10029A0002C0EEE7F2E09F01D9010E948A07309777
:1002AA0039F43A932A93A5E6B2E00E947D0717C073
:1002BA003A932A93A8E6B2E00E946907E03029F44B
:1002CA003A932A93AAE6B2E008C0D9014BD1E030AA
:1002DA0031F43A932A93ADE6B2E00E945807FCD172
:1002EA00A3C01D3251F400240414050419F00E941D
:1002FA00DD0819F40E94E70809F00CC00E94DD0825
:10030A0009F42CD2EDE2E0937E02E0E0E0937F0272
:10031A00E3D18AC01B3231F01D3221F01A3211F0BA
:10032A001F32D9F50E94E70809F469CF0E94ED0847
:10033A00AFE6B2E00E946907E03009F460CF00241A
:10034A000414050419F00E94DD0841F4712EE1E05D
:10035A00F0E02F01E0E0E093880219C00E94E20871
:10036A00D9F4A8E8B2E00E948A07309711F4712EF6
:10037A000EC00E94F208A4EFB1E00E94EE090E94AA
:10038A00ED080E942609712EE1E0F0E02F010E949B
:10039A002405A72D0E94300547C0133561F40E9439
:1003AA00E20819F4E8E8F2E002C0EEE7F2E09F01A1
:1003BA00D901DDD139C0103511F418D235C0123740
:1003CA0011F46BD231C0123511F4A3D22DC01037FB
:1003DA0011F4C9D229C01E3611F4E1D225C01D3349
:1003EA00F9F40E94E20809F00ACFA8E8B2E00E94F4
:1003FA008A07309709F403CF0E943309A1E7B2E0D4
:10040A000E946907E03009F4FACE0E94F2080E94BD
:10041A00ED080E9426097724E2E0F0E02F0104C0EB
:10042A00133411F40E943809EACEFFCF21970E94B3
:10043A00570CE0E0EE8340E050E020E030E0263068
:10044A00E0E03E07F4F5F901EC5AFF4F049005BAD3
:10045A00A5E0B0E00E94EE090FEF1FEFC89903C0B4
:10046A0000E010E00EC0C99903C001E010E009C025
:10047A00CA9903C002E010E004C0CB9902C003E0AD
:10048A0010E0EFEFFFEFE017F107C1F0F801A6E087
:10049A00B0E00E94DA0BE20FF31FAF01E1E0EE8356
:1004AA000E943B09C89B06C0C99B04C0CA9B02C0E4
:1004BA00CB9901C0F7CF0E943B0903C02F5F3F4F82
:1004CA00BECFE0E0E5BBEE81E03029F0FA01E65A62
:1004DA00FF4FE49101C0E0E00E945E0C2796089568
:1004EA00AA93E881F0E0EB32A0E0FA0729F40E942F
:1004FA003F090E949E0A34C0ED32A0E0FA0759F47F
:10050A00A981BA818B819C81ED81FE816F81788579
:10051A000E94970A25C0EA32A0E0FA0729F40E944D
:10052A003F090E94EE0A1CC0EF32A0E0FA07C1F4AC
:10053A00E981FA816B817C810E944F0C69F40E94E7
:10054A002405A2E9B0E00E9448090E943809E0E0C7
:10055A00F0E060E070E004C00E943F090E943C0B9A
:10056A00299608950E944E0900E010E0F801AA8138
:10057A00BB81AE0FBF1FEC91E03079F0F801AA8180
:10058A00BB81AE0FBF1FAC91AE3221F4E1E01981FD
:10059A00088126C20F5F1F4FE9CFE0E01981088169
:1005AA001FC20E94040C2A970E94570C10E0AB89C4
:1005BA00AA235AF411E0E889F9896A897B890E9499
:1005CA00F809E88BF98B6A8B7B8BE889F9896A8948
:1005DA007B890E942D0A9F010E945309A889B98923
:1005EA008A899B890E94090C0E94970A0E945809CD
:1005FA000E945D09E0E0F0E06AE774E40E94EE0A16
:10060A00A0E0B0E080E09FE30E949E0A0E942D0ACB
:10061A00AF01483EE3E05E0724F040E050E02F5F80
:10062A003F4F042E052A79F40E94620919F0EDE978
:10063A00F0E002C0EEE9F0E00E946A0984E00E945C
:10064A000507289645C0FE013896FA93EA93E1EA2F
:10065A00F0E0FA93EA93FA010E94C80B0E94FF0B9A
:10066A0084E00E9405072896E3E0F0E0EE83FF832A
:10067A00AE81BF810E94530C54F4EE81FF81319701
:10068A00DE011896AE0FBF1FAC91A03309F00CC063
:10069A00EE81FF813197EE83FF83DE011896AE0F5C
:1006AA00BF1FE0E0EC93E4CF0E94620919F0E6EA8A
:1006BA00F0E002C0E7EAF0E00E946A09FE017096E3
:1006CA00662777270E94FF0B88E00E9405072C9671
:1006DA000E945E0C66960895B2D10E94E208A1F4C7
:1006EA0070929202E0E0E0939302E2E9F2E0FA9378
:1006FA00EA930E943309AFE00E94A307E0E0E09387
:10070A00A202A2E9B2E00BC0E0917E02F0E03097CB
:10071A0019F0EEE7F2E002C0E8E8F0E0DF01B0D15C
:10072A000895AA931A930A93AB81BC810E948A07FF
:10073A008F010930E0E01E077CF4F801AB81BC812F
:10074A00EA0FFB1FAA81A083F8013196AB81BC8115
:10075A00AE0FBF1FE0E0EC930C94CD05E0E0E09310
:10076A007E02E093880277244424552408950E9447
:10077A004E09AA81BB810E948A078F01AA81BB8187
:10078A00AC91AD3269F4EA81FB81FA93EA93EC8188
:10079A00FD813196FA93EA93D8010E94390722C063
:1007AA00002E012A39F4AA81BB81EDE2EC9311965D
:1007BA00E0E017C00830E0E01E071CF0198108814C
:1007CA000FC1EA81FB813196FA93EA93EC81FD81AC
:1007DA00FA93EA93D80111960E943907AA81BB813C
:1007EA00EDE2EC9379DF19810881FAC02C971A930C
:1007FA000A930E94E20879F4A8E8B2E00E948A0704
:10080A000E944B0C40F40E943309A3E7B2E00E9415
:10081A006907E03009F419C00E947209EA87FB8768
:10082A006C877D87A8E8B2E00E947609EE81FF8195
:10083A0068857985AA85BB858C859D850E94EE0A87
:10084A000E947D090E9433091EC00E94E20819F421
:10085A00E8E8F2E002C0EEE7F2E08F01D8010E9478
:10086A008A07309741F01A930A93A5E7B2E00E94EB
:10087A006907E03009F40DC0D8010E94CD070E9433
:10088A007D091A930A93AC81BD818E819F8189DE8D
:10089A0023DF198108812E96089528971A930A93BF
:1008AA000E94E20819F4E8E8F2E002C0EEE7F2E09A
:1008BA008F01D8010E948A07309741F01A930A9350
:1008CA00A7E7B2E00E946907E03009F41EC0D80128
:1008DA000E947609A985AA2332F4B1D0ADEAB0E024
:1008EA000E94480911C0AE81BF81888599850E94FE
:1008FA00810BEA83FB836C837D831A930A93AC8111
:10090A00BD818E819F814DDEE7DE198108812A969D
:10091A0008956620A9F40E94ED080E948A09DF0161
:10092A00CB013FDEE0E0E09388027724E2E0F0E0EA
:10093A002F0185D0AEE7B2E0A3D0E1E06E2E12C05F
:10094A00A0E0B0E0E0E0F0E060E070E00E948F0933
:10095A00AAEBB0E0A4D0A0E2B3E00E94EE090E94A4
:10096A0038096624089524970E94E70841F00E94F6
:10097A00ED08A9E7B2E00E946907E03009F430C047
:10098A000E9472090E9493090E94F50B0E949E0A16
:10099A00A0E0B0E00E948F09A4ECB0E01BC024974D
:1009AA000E94E70841F00E94ED08ABE7B2E00E941E
:1009BA006907E03009F414C00E9472090E94930981
:1009CA000E94F50B0E94970AA0E0B0E00E948F09EE
:1009DA00A7ECB0E064D0A4EFB1E00E94EE097CDE9F
:1009EA0024960895AA93E2B3EF70AE2FE881E07FD0
:1009FA00EA2BE2BB8DE08A95F1F7929A8DE08A950F
:100A0A00F1F792988DE08A95F1F786C0AA93A881AA
:100A1A00E9DFE881E295E883A881E4DF85E88A9541
:100A2A00F1F77AC0AA93E881F0E0ED55FD4FE08135
:100A3A00A981AE0FEBDF9980888022960895A2E003
:100A4A000E949609ACE0E2DFA1E00E949609E0E08C
:100A5A008E2E9E2E0895AA93A881AA3011F09B1477
:100A6A0048F0E0E0EA938394A82DDCDFA881AA305D
:100A7A0009F452C09394909AA881C8DF90984CC008
:100A8A00BA93AA931A93A981BA81ED91A983BA83D9
:100A9A001E2FE03019F0A12FDEDFF5CF10C0BA9378
:100AAA00AA931A93E981FA813196E983FA833197F5
:100ABA00E4911E2FE03019F0A12FCDDFF3CF18817A
:100ACA0023960895AA93E1B3E06FE1BB8A9A889AC4
:100ADA00899A929890989198B880E881E058E09322
:100AEA00A502E881E054E093A6020E943B090E9415
:100AFA009C090E949C090E949C09A0E273DF88EC71
:100B0A0090E00197F1F7A8E281DFA4E07FDFA5E892
:100B1A007DDFA6E07BDF93DF219608950E944E09D0
:100B2A00AA81BB8112960E94ED0B309759F1AA81D6
:100B3A00BB8114960E94ED0B8F01309761F0023051
:100B4A00E0E01E0798F0F80131978F01AA81BB8176
:100B5A001496ED93FC93AA81BB811296ED91FD91B7
:100B6A003196FE93EE933197AC81A083AA81BB8123
:100B7A000E94ED0BFF232AF0ED91FD913196FE9331
:100B8A00EE9306C0AA81BB81EFEFFFEFED93FC93D2
:100B9A001981088125960895BA93AA9326970E94E7
:100BAA00570C10E0AC85BD85E0E0F0E0ED93FC93D6
:100BBA00EA89FB893196EA8BFB8B3197E4912E2FD8
:100BCA00E03009F415C1E12FE03039F4253211F48F
:100BDA0011E002C00E94A4090AC1E130A9F4253239
:100BEA0019F40E94A40902C112E040E000E02D328B
:100BFA0011F401E0FCC02B3211F44BE2F8C02032B0
:100C0A0011F440E2F4C002C0E23039F450E013E0DB
:100C1A00203311F40068EBC003C0E33009F0E7C0E9
:100C2A00203310F02A3308F007C0AAE05A9F502D4B
:100C3A00E22FE0535E0FDBC0E22FE33649F40E9455
:100C4A00AB09E889F989A481AA930E94B109CEC0A7
:100C5A00E33741F40E94AB090E94B7090E948A0750
:100C6A001E2F0AC0E03761F40E94AB090E94B7093F
:100C7A000E9496071E2F086002600F7730E034C08A
:100C8A00E43611F0E93611F4046002C0E53731F4B4
:100C9A00E2E7F0E0EE83FF8315E00CC0E83511F4DB
:100CAA00086003C0E83709F0A1C0ECE7F0E0EE8382
:100CBA00FF8314E002FF14C00E94AB090E94C1091D
:100CCA00AB85AA233AF4EA85FB850E94BC0BEA8726
:100CDA00FB874DE2403011F01F5F01C00B7F04C05B
:100CEA000E94AB090E94C10900FD11C0151778F4D2
:100CFA0007FF08C002FF04C00B7F242F115001C058
:100D0A0020E301C020E20E94A4095150EFCF312F05
:100D1A0001FF17C03030A1F003FF06C0EE81FF814A
:100D2A002591EE83FF8305C0AE81BF812D91AE83ED
:100D3A00BF830E94A409503009F051503150EACFC4
:100D4A004BC020E3EE81FF810E94F10BE887F9870F
:100D5A00EE81FF813296EE83FF83E885F985AA85C5
:100D6A00BB85AE17BF0750F02F5FA885B985EA8506
:100D7A00FB85EA1BFB0BEA87FB87EFCF2A3328F0B8
:100D8A0003FF02C0295F01C0295D04FD1AC0213397
:100D9A0020F4A885B985119709F409C0531710F0F2
:100DAA0000FF01C013C020E207FF0BC020E300616F
:100DBA0002FF07C00B7F4A930E94B109503009F025
:100DCA0051500E94A409503009F051503150A88561
:100DDA00B985129708F0B5CF00FF08C0503031F03E
:100DEA005150E0E2EA930E94B109F8CF10E0E0CE58
:100DFA00AC85BD850E94ED0B0E945E0C6496089539
:100E0A00FF92F82E26970E94590C0E94C909309722
:100E1A0019F4EFEFFFEF23C0DE0116960E94B80B1C
:100E2A008D010E94C909EE83FF83E0E0E887E98724
:100E3A00DE011A960E94B80B0E94ED0BFA93EA9310
:100E4A001A930A93E3E9F5E0FA93EA93DE011A9614
:100E5A00A3DE9F01AE81BF81E0E0EC93F9010E941D
:100E6A00600C2A96FF900895BA93AA939981888173
:100E7A000096A9F0BD81AC81FB81EA81EA17FB07E4
:100E8A0071F02CF061916D930197E1F708C0A80FFA
:100E9A00B91FE80FF91F62916E930197E1F7FD817F
:100EAA00EC8126960895BA93AA93E991F991A991AA
:100EBA00B991CD016D916623E9F7119761916D930F
:100ECA006623E1F7FC010895BA93AA93E991F9918F
:100EDA00A991B9916D917191671721F46623D1F7A0
:100EEA00EE270895671BE1F3E1E008F4E250089564
:100EFA00BA93AA93E991F991A991B991CD01619116
:100F0A006D936623E1F7FC010895BA93AA93A99118
:100F1A00B991EE27FF276D91662311F03196FBCF29
:100F2A000895BA93AA93AA27BB27E991F991059044
:100F3A00002011F01196FBCFFD010895AA93799133
:100F4A00E991F991A991B991CD016D916623E9F7DA
:100F5A0011977C93772329F07A9561916D93662393
:100F6A00C1F7FC010895AA937991E991F991A991A0
:100F7A00B991CD01772351F07A9561916D936623EA
:100F8A00C9F7772319F07A956D93FBCFFC01089581
:100F9A00BA93AA932A970E94570CE0E0E887E98758
:100FAA00EA87EB87A889B989EC915E2FAE2F0E9458
:100FBA00CC08E03031F0E889F9893196E88BF98B71
:100FCA00F1CFE0E0EF835B3221F05D3239F4E1E00A
:100FDA00EF83E889F9893196E88BF98BE0E04E2FA7
:100FEA005E2F08891989A889B989AC910E94C3081A
:100FFA00E03049F4A889B989AC91EEE20E94CD0BA0
:10100A005E2FE03039F0452BE889F9893196E88B73
:10101A00F98BE9CF28893989403019F1E889F989AA
:10102A003197E88BF98BA889B989AC91AE32C9F0AE
:10103A00A889B989EC91F0E0F0970E94D0090E9442
:10104A0053090E949E0ADF01CB010E94D5090E9422
:10105A003C0B0E94DA09E889F9893197E88BF98B08
:10106A00E2CF0E94DF09A889B9891197A88BB98BA9
:10107A00A017B10790F0EC91F0E0F0970E945D099B
:10108A000E9453090E94EE0A0E94D0090E949E0AF9
:10109A000E94DA090E94E409E6CFD9012F5F3F4F87
:1010AA005C91553619F0553409F055C0E0E04E2FE1
:1010BA00EE83D9015C915B3221F05D3221F4E1E0EB
:1010CA00EE832F5F3F4FD9012F5F3F4FEC915E2F89
:1010DA00AE2F0E94C308E03039F0AAE04A02F001BC
:1010EA00E50FE0534E2FEFCF473268F0EF81E03043
:1010FA0029F0EFEFFFEF6FE77FEF3CC0EFEFFFEF75
:10110A006FE77FE737C050E20E94DF09503079F07D
:10111A000E94E9090E945D090E94EE0A0E9458098C
:10112A00E42FE52311F00E94E4095695EFCFEE81F2
:10113A00E03039F00E94E9090E94D0090E943C0B74
:10114A0006C00E94E9090E94D0090E94EE0AE887B7
:10115A00F9876A877B87EF81E03041F0E885F98576
:10116A006A857B850E94F8090E94DA09E885F98573
:10117A006A857B850E945E0C62960895AA93E1E0D7
:10118A00F991F03310F0FA3308F0EE270895AA9394
:10119A00E1E0F991F03229F0F93010F0FE3008F070
:1011AA00EE2708950E942405A8E8B0E00C9454059F
:1011BA00E2E0F0E0E415F5050895E1E0F0E0E41579
:1011CA00F5050895AEE7B2E00E948A0730970895C0
:1011DA00EEE7F2E0FA93EA930895AEE7B2E00E94EE
:1011EA00CD07E887F9876A877B87A8E8B2E00E947B
:1011FA00CD07EC83FD836E837F83E885F9856A8555
:10120A007B850E94FF0BE885F9856A857B850E94AC
:10121A00FF0BA72D0E9475020E94FA0BE2E9F2E089
:10122A00FA93EA93AA81BB818C819D810E94D6029E
:10123A00E0E0E093A2020E942405A2E9B2E00C9445
:10124A004505E2E9F2E0FA93EA93A9E00E94B807B9
:10125A00E0E0E0938702E09388020895E8E8F2E08C
:10126A00FA93EA9308950E94B3039CCFA4E1B0E0F5
:10127A000C94EE09E981FA816B817C81AD81BE8192
:10128A008F81988508950E945405ACEDB5E00C94C1
:10129A00EE09BA93AA931A930A9308950E94C80B67
:1012AA000E94640A0895EC87FD876E877F870895F8
:1012BA00AC85BD858E859F850895EC89FD89FA9355
:1012CA00EA93E12FF0E030970895FA93EA93F9014F
:1012DA000E94C80B0E94FF0B0895AEE7B2E00C947F
:1012EA00CD070E94CD07EE83FF836887798708952B
:1012FA00DF01CB01E0E0F0E068EC72E40E943C0B15
:10130A00EA83FB836C837D830895A0E0B0E00E94AA
:10131A00160C08950E942A0C0C9424050E94FA0BBC
:10132A00F4CF0E940B05A3E0B0E00C94EE09A0E311
:10133A000E94F70488EC90E00197F1F708952A9348
:10134A00AD85BE85EF85F88909950895E889F989FB
:10135A003497E88BF98B0895AD85BE85EF85F889BA
:10136A0009950895A889B98914960E94ED0BEE8310
:10137A00FF83AE81BF810895A889B98914960E9416
:10138A00ED0BEA87FB870895DE011C960E94B80BD5
:10139A000E94ED0B0895A885B9858A859B850895D5
:1013AA00E0E0F0E060E271E40895E887F9876A878F
:1013BA007B870895E0E0F0E060E87FE374CF78DFB0
:1013CA00EFDF0E94EE0A6FCFEC85FD856E857F8583
:1013DA000895109639F0A89580ED97E00197F1F7F6
:1013EA001197C9F7089530976040704009F0705816
:1013FA000895552342F4503811F4E0FF04C03196A1
:10140A00691F791F6BF050E8572711F45F93CFC01B
:10141A005F3F31F0660F000C57956795752F089559
:10142A005F9300200AF0CFC0C8C050E8192E1522D9
:10143A00880F991F9527550F879550E8072E052283
:10144A00660F771F7527550F67950895689401C031
:10145A00E8945F93F2DF703818F07F3F08F4A7C072
:10146A0056E1571BAAF4519558300EF4593030F012
:10147A00EFEFFFEF6FEF7FE777F91AC07727552372
:10148A00B9F0EE0FFF1F661F771F5A95D1F710C0EC
:10149A007727583028F0EF2FF62F672F5850F9CFBB
:1014AA00552331F076956795F795E7955A95D1F7D3
:1014BA0000200AF460D15F910895689401C0E8940D
:1014CA00309760407040B1F0002426F0772312F480
:1014DA00009451D1172E7EE1112032F07A95EE0F49
:1014EA00FF1F661F111CF9CFEF2FF62F612D5F9397
:1014FA008ADF5F9108954F93AF01FD01DA01AB01D5
:10150A00BC01CA01402D012C142E4F910895EA0FF7
:10151A00FB1F681F0895E095F0956095EF5FFF4FF8
:10152A006F4F08955F9381DF903871F150E8152667
:10153A0004C05F937ADF903839F1703821F1572F60
:10154A00591B2BF112F4D7DFFACF583118F0AA271A
:10155A00BB278827583028F0AB2FB82F8827585038
:10156A00F9CF552329F08695B795A7955A95D9F7B6
:10157A00502D512572F0CBDF38F46795F795E79532
:10158A00739513F420C0B7DF3EDF5F910895D8F753
:10159A00FBCFEA1BFB0B680B51F010F40094BBDF86
:1015AA00662392F3EE0FFF1F661F7A95CBF7EE279D
:1015BA00FF27662777275F910895EFEFFFEF6FE721
:1015CA007FEF5F910895EFEFFFEF6FE77FE75F919E
:1015DA0008955F932ADF703851F3903841F301245C
:1015EA000894791F23F41CF300203AF3ECCF0F92EE
:1015FA001F932F933F934F93112722279927689F71
:10160A00A0018F9F302D410D591F6B9F300D411D39
:10161A00591F8E9F27D0BF9F25D06A9F23D0BE9F78
:10162A001DD0AF9F1BD0AE9F110D291F391F491F17
:10163A00591FE32FF42F652F522F4F913F912F916E
:10164A001F910F9066232AF0550FEE1FFF1F661F8A
:10165A0002C073954BF2CDDE5F910895100D211DE6
:10166A00391F02C0200D311D491F591F08955F936C
:10167A00DCDE703821F411200AF49FCFA4CF903811
:10168A0009F495CF01240894970B1BF4D4F3002096
:10169A00F3CF792F1F932F933F934F931124112741
:1016AA00222733274427552790E2AE17BF0786071C
:1016BA00410730F0AE1BBF0B860B410B089401C0EB
:1016CA008894551F221F331F111CAA1FBB1F881F76
:1016DA00441F9A9551F7F901612D4F913F912F912E
:1016EA001F91662332F0550FEE1FFF1F661F7A9572
:1016FA0043F27FDE5F91089582D024975F939F81A2
:10170A00992311F4289653CF12F428965CCF4F935D
:10171A0042E48E81BD81AC8188839983AA83BB838D
:10172A00FD01BC01AC81BD818E819F81A0DF8881D2
:10173A009981AA81BB81FDDE80DE7A9564DE88818B
:10174A009981AA81BB81AE27A87F21F4BF1786079A
:10175A00970729F04A9519F0DF01CB01DDCF4F91A8
:10176A005F91289608950024AF0DB01D0895F19554
:10177A00E195F0400895F09560957095E195FF4FD9
:10178A006F4F7F4F08956F2F660F660B762F089560
:10179A00EA17E1E009F0EE270895FA9FF02DEB9F92
:1017AA00F00DEA9FE02DF10D089504D0F6DF0EF456
:1017BA00DEDF0895E894F7FF02C0D9DF6894B7FF27
:1017CA0006C0A095B095119600F8039400FA089502
:1017DA00ED91FC91119708950590F491E02D0895EB
:1017EA00A881B9818A819B810895E883F9836A83F4
:1017FA007B8308957A936A93FA93EA9308959A9366
:10180A008A93BA93AA930895182E862F612D192EBA
:10181A00972F712D1B2EBF2FF12D1A2EAE2FE12DD2
:10182A000895129602D0BF011297119602D0FE2F88
:10183A001197E199FECFFF93FFB7F894AEBBBFBBF8
:10184A00E09AEDB3FFBFFF91089507D012960F01FA
:10185A00FB0103D0F0011297089507D01196EF9378
:10186A00EF2F03D0EF9111970895E19B02C0A8953D
:10187A00FCCF9FB7F894AEBBBFBBE09A8DB3E81715
:10188A0019F0EDBBE29AE19A9FBF089500240E1663
:10189A000F060895309760407040089500240A1694
:1018AA000B0608955A934A933A932A931A930A93E2
:1018BA0008955D814C813B812A81198108810895AF
:00000001FF
